:0300000002098E64
:0C098E00787FE4F6D8FD75810E0208D6D3
:060800008B0A8A0B890C33
:10080600E4F50D7F407E0012095CE50D24B0FFE49F
:1008160033FE12095C7F107E0012095C7F047E00A5
:1008260012095CE4F50EE4FFFE12096D050EE50EF5
:10083600C3941840F1E4F50EAB0AAA0BA90C1209F1
:1008460043FF7E0012096D7401250CF50CE4350B8F
:10085600F50B050EE50EC3945040DD050DE50DC301
:040866009408409F13
:01086A00226B
:1008D60012086B12091A12097E7F7B12099AE4F537
:1008E60008F509D3E509947FE5089402501B12091F
:1008F600A20509E509AC0870020508142400F58272
:1009060074003CF583EFF080DA7B017A00790012FF
:04091600080080C590
:10095C00C290D293C292C29400008F800000D294B5
:01096C002268
:10096D00C290D293D292C29400008F800000D29494
:01097D002257
:10086B00C291E4FF0FBF64FCC290D2917FE27E0085
:10087B0012095CE4FF0FBF64FC7FA17E0012095CD0
:10088B007FC812095C7FA612095C7FA412095C7FEA
:10089B00A212095C7FF812095C7F0112095C7F814F
:1008AB0012095C7F2312095C7F2512095C7F2F12D2
:1008BB00095CE4FF0FBF64FC7F407E0012095C7F84
:0A08CB00AF12095CE4FF0FBF64FCEC
:0108D5002200
:10091A00E4FDED24B0FFE433FE12095C7F107E0093
:10092A0012095C7F0412095CE4FCE4FFFE12096D03
:08093A000CBC80F60DBD08DACB
:010942002292
:10097E0075985A75D7D875D6FF758E14438E012289
:08099A003099FDC2998F9922EA
:0809A2003098FDC298AF9922C4
:10094300BB010689828A83E0225002E722BBFE02B2
:09095300E32289828A83E49322E5
:00000001FF
